:020000040800F2
:10000000000002200DB10008212000082320000874
:1000100025200008272000082920000800000000F3
:1000200000000000000000000000000071690008EE
:100030002B20000800000000116A0008FF6400087F
:100040005DB100085DB100085DB100085DB1000858
:100050005DB100085DB100085DB100085DB1000848
:100060005DB100085DB100085DB100085DB1000838
:100070002D2000085DB100085DB100085DB10008E9
:100080005DB100085DB100085DB100085DB1000818
:100090003D2000084D2000085DB100085DB100085A
:1000A0005DB100085DB100085DB100085DB10008F8
:1000B0005DB100085DB100085DB100085DB10008E8
:1000C0005DB100085DB100085DB100085DB10008D8
:1000D0005DB100085D2000085DB1000875200008D2
:1000E0005DB100085DB100085DB100085DB10008B8
:1000F0005DB100088D2000085DB100085DB1000809
:100100005DB100085DB100085DB100085DB1000897
:100110005DB100085DB100085DB100085DB1000887
:100120005DB10008A5200008B52000085DB10008F9
:100130005DB100085DB100085DB100085DB1000867
:10014000C5200008D52000085DB100085DB1000899
:100150005DB10008E5200008F52000080521000831
:100160005DB100085DB100085DB100085DB1000837
:100170005DB100085DB100085DB10008000000003D
:080180005DB100085DB100084B
:1001900010B5054C237833B9044B13B10448AFF3C1
:1001A00000800123237010BD7400002000000000B7
:1001B000FCDC000808B5034B1BB103490348AFF34F
:1001C000008008BD0000000078000020FCDC000872
:1001D00010F8012B11F8013B012A28BF9A42F7D0F1
:1001E000D01A704781F0004102E000BF83F0004365
:1001F00030B54FEA41044FEA430594EA050F08BFC2
:1002000090EA020F1FBF54EA000C55EA020C7FEA85
:10021000645C7FEA655C00F0E2804FEA5454D4EB02
:100220005555B8BF6D420CDD2C4480EA020281EACC
:10023000030382EA000083EA010180EA020281EA04
:100240000303362D88BF30BD11F0004F4FEA013156
:100250004FF4801C4CEA113102D0404261EB410165
:1002600013F0004F4FEA03334CEA133302D05242EB
:1002700063EB430394EA050F00F0A780A4F10104A7
:10028000D5F1200E0DDB02FA0EFC22FA05F28018E1
:1002900041F1000103FA0EF2801843FA05F35941C7
:1002A0000EE0A5F120050EF1200E012A03FA0EFC46
:1002B00028BF4CF0020C43FA05F3C01851EBE37170
:1002C00001F0004507D54FF0000EDCF1000C7EEB8D
:1002D00000006EEB0101B1F5801F1BD3B1F5001FCB
:1002E0000CD349085FEA30004FEA3C0C04F10104EA
:1002F0004FEA445212F5800F80F09A80BCF1004F13
:1003000008BF5FEA500C50F1000041EB045141EA94
:10031000050130BD5FEA4C0C404141EB0101013C5D
:1003200028BFB1F5801FE9D291F0000F04BF01464C
:100330000020B1FA81F308BF2033A3F10B03B3F11E
:1003400020020CDA0C3208DD02F1140CC2F10C02AE
:1003500001FA0CF021FA02F10CE002F11402D8BF0C
:10036000C2F1200C01FA02F120FA0CFCDCBF41EAD8
:100370000C019040E41AA2BF01EB0451294330BDA7
:100380006FEA04041F3C1CDA0C340EDC04F1140484
:10039000C4F1200220FA04F001FA02F340EA03005B
:1003A00021FA04F345EA030130BDC4F10C04C4F1A1
:1003B000200220FA02F001FA04F340EA0300294681
:1003C00030BD21FA04F0294630BD94F0000F83F4CB
:1003D000801306BF81F480110134013D4EE77FEAAE
:1003E000645C18BF7FEA655C29D094EA050F08BFFA
:1003F00090EA020F05D054EA000C04BF19461046DB
:1004000030BD91EA030F1EBF0021002030BD5FEA1E
:10041000545C05D14000494128BF41F0004130BD46
:1004200014F580043CBF01F5801130BD01F000459A
:1004300045F0FE4141F470014FF0000030BD7FEA0D
:10044000645C1ABF194610467FEA655C1CBF0B4608
:10045000024650EA013406BF52EA033591EA030F1F
:1004600041F4002130BD00BF90F0000F04BF002117
:10047000704730B54FF4806404F132044FF000054A
:100480004FF0000150E700BF90F0000F04BF0021C3
:10049000704730B54FF4806404F1320410F0004529
:1004A00048BF40424FF000013EE700BF42004FEA24
:1004B000E2014FEA31014FEA02701FBF12F07F43A1
:1004C00093F07F4F81F06051704732F07F4208BF58
:1004D000704793F07F4F04BF41F40021704730B55F
:1004E0004FF4607401F0004521F000411CE700BFAB
:1004F00050EA010208BF704730B54FF000050AE02E
:1005000050EA010208BF704730B511F0004502D52E
:10051000404261EB41014FF4806404F132045FEA30
:10052000915C3FF4D8AE4FF003025FEADC0C18BFD9
:1005300003325FEADC0C18BF033202EBDC02C2F1CB
:10054000200300FA03FC20FA02F001FA03FE40EA5D
:100550000E0021FA02F11444BDE600BF70B54FF061
:10056000FF0C4CF4E06C1CEA11541DBF1CEA13553F
:1005700094EA0C0F95EA0C0F00F0DEF82C4481EAA7
:10058000030621EA4C5123EA4C5350EA013518BFC7
:1005900052EA033541F4801143F4801338D0A0FBB4
:1005A00002CE4FF00005E1FB02E506F00042E0FB61
:1005B00003E54FF00006E1FB03569CF0000F18BF67
:1005C0004EF0010EA4F1FF04B6F5007F64F540740F
:1005D00004D25FEA4E0E6D4146EB060642EAC621A2
:1005E00041EA55514FEAC52040EA5E504FEACE2E0F
:1005F000B4F1FD0C88BFBCF5E06F1ED8BEF1004F12
:1006000008BF5FEA500E50F1000041EB045170BD8D
:1006100006F0004646EA010140EA020081EA0301D1
:10062000B4EB5C04C2BFD4EB0C0541EA045170BDCD
:1006300041F480114FF0000E013C00F3AB8014F147
:10064000360FDEBF002001F0004170BDC4F1000490
:10065000203C35DA0C341BDC04F11404C4F1200511
:1006600000FA05F320FA04F001FA05F240EA02006C
:1006700001F0004221F0004110EBD37021FA04F6A2
:1006800042EB06015EEA430E08BF20EAD37070BD5C
:10069000C4F10C04C4F1200500FA04F320FA05F0BB
:1006A00001FA04F240EA020001F0004110EBD370BD
:1006B00041F100015EEA430E08BF20EAD37070BD2D
:1006C000C4F1200500FA05F24EEA020E20FA04F306
:1006D00001FA05F243EA020321FA04F001F00041B5
:1006E00021FA04F220EA020000EBD3705EEA430E26
:1006F00008BF20EAD37070BD94F0000F0FD101F055
:100700000046400041EB010111F4801F08BF013C8D
:10071000F7D041EA060195F0000F18BF704703F0CB
:100720000046520043EB030313F4801F08BF013D52
:10073000F7D043EA0603704794EA0C0F0CEA13550E
:1007400018BF95EA0C0F0CD050EA410618BF52EAC8
:100750004306D1D181EA030101F000414FF00000CE
:1007600070BD50EA410606BF1046194652EA4306DC
:1007700019D094EA0C0F02D150EA013613D195EA50
:100780000C0F05D152EA03361CBF104619460AD198
:1007900081EA030101F0004141F0FE4141F47001A2
:1007A0004FF0000070BD41F0FE4141F4780170BD92
:1007B00070B54FF0FF0C4CF4E06C1CEA11541DBFF7
:1007C0001CEA135594EA0C0F95EA0C0F00F0A7F8F9
:1007D000A4EB050481EA030E52EA03354FEA013126
:1007E00000F088804FEA03334FF0805545EA131339
:1007F00043EA12634FEA022245EA111545EA106501
:100800004FEA00260EF000419D4208BF964244F197
:10081000FD0404F5407402D25B084FEA3202B61AB6
:1008200065EB03055B084FEA32024FF480104FF48A
:10083000002CB6EB020E75EB030E22BFB61A7546FE
:1008400040EA0C005B084FEA3202B6EB020E75EB91
:10085000030E22BFB61A754640EA5C005B084FEAF9
:100860003202B6EB020E75EB030E22BFB61A7546C6
:1008700040EA9C005B084FEA3202B6EB020E75EBD1
:10088000030E22BFB61A754640EADC0055EA060E92
:1008900018D04FEA051545EA16754FEA06164FEAD5
:1008A000C30343EA52734FEAC2025FEA1C1CC0D181
:1008B00011F4801F0BD141EA00014FF000004FF00E
:1008C000004CB6E711F4801F04BF01430020B4F1CF
:1008D000FD0C88BFBCF5E06F3FF6AFAEB5EB030C87
:1008E00004BFB6EB020C5FEA500C50F1000041EB84
:1008F000045170BD0EF0004E4EEA113114EB5C0451
:10090000C2BFD4EB0C0541EA045170BD41F4801123
:100910004FF0000E013C90E645EA060E8DE60CEA2B
:10092000135594EA0C0F08BF95EA0C0F3FF43BAF48
:1009300094EA0C0F0AD150EA01347FF434AF95EAFF
:100940000C0F7FF425AF104619462CE795EA0C0FE3
:1009500006D152EA03353FF4FDAE1046194622E7B0
:1009600050EA410618BF52EA43067FF4C5AE50EA8A
:1009700041047FF40DAF52EA43057FF4EBAE12E77A
:100980004FF0FF3C06E000BF4FF0010C02E000BF5B
:100990004FF0010C4DF804CD4FEA410C7FEA6C5C3E
:1009A0004FEA430C18BF7FEA6C5C1BD001B050EAE1
:1009B000410C0CBF52EA430C91EA030F02BF90EACC
:1009C000020F0020704710F1000F91EA030F58BF8B
:1009D000994208BF90422CBFD8176FEAE37040F0ED
:1009E000010070474FEA410C7FEA6C5C02D150EA8B
:1009F000013C07D14FEA430C7FEA6C5CD6D152EA46
:100A0000033CD3D05DF8040B704700BF844610460A
:100A100062468C461946634600E000BF01B5FFF709
:100A2000B7FF002848BF10F1000F01BD4DF808EDD9
:100A3000FFF7F4FF0CBF012000205DF808FB00BFAA
:100A40004DF808EDFFF7EAFF34BF012000205DF804
:100A500008FB00BF4DF808EDFFF7E0FF94BF012051
:100A600000205DF808FB00BF4DF808EDFFF7CEFF52
:100A700094BF012000205DF808FB00BF4DF808ED91
:100A8000FFF7C4FF34BF012000205DF808FB00BF62
:100A90004FEA410C7FEA6C5C02D150EA013C0AD17A
:100AA0004FEA430C7FEA6C5C02D152EA033C02D16C
:100AB0004FF0000070474FF0010070474FEA4102CD
:100AC00012F5001215D211D56FF47873B3EB6252A0
:100AD00012D94FEAC12343F0004343EA505311F0C7
:100AE000004F23FA02F018BF404270474FF0000059
:100AF000704750EA013005D111F0004008BF6FF097
:100B0000004070474FF00000704700BF4FEA4102BD
:100B1000B2F1E04324BFB3F5001CDCF1FE5C0DD95B
:100B200001F0004C4FEAC0024CEA5070B2F1004FA5
:100B300040EB830008BF20F00100704711F0804FA8
:100B400021D113F13872BCBF01F00040704741F46D
:100B500080114FEA5252C2F11802C2F1200C10FA71
:100B60000CF320FA02F018BF40F001004FEAC12355
:100B70004FEAD32303FA0CFC40EA0C0023FA02F3F9
:100B80004FEA4303CCE77FEA625307D150EA0133CF
:100B90001EBF4FF0FE4040F44000704701F000409F
:100BA00040F0FE4040F40000704700BF53B94AB91E
:100BB000002908BF00281CBF4FF0FF314FF0FF3065
:100BC00000F074B9ADF1080C6DE904CE00F006F840
:100BD000DDF804E0DDE9022304B070472DE9F047B9
:100BE000089D04468E46002B4DD18A42944669D911
:100BF000B2FA82F252B101FA02F3C2F1200120FAF4
:100C000001F10CFA02FC41EA030E94404FEA1C4841
:100C1000210CBEFBF8F61FFA8CF708FB16E341EA3D
:100C2000034306FB07F199420AD91CEB030306F1C3
:100C3000FF3080F01F81994240F21C81023E6344E4
:100C40005B1AA4B2B3FBF8F008FB103344EA034488
:100C500000FB07F7A7420AD91CEB040400F1FF339D
:100C600080F00A81A74240F207816444023840EADA
:100C70000640E41B00261DB1D4400023C5E9004313
:100C80003146BDE8F0878B4209D9002D00F0EF8096
:100C90000026C5E9000130463146BDE8F087B3FAC9
:100CA00083F6002E4AD18B4202D3824200F2F980B1
:100CB000841A61EB030301209E46002DE0D0C5E9B4
:100CC000004EDDE702B9FFDEB2FA82F2002A40F000
:100CD0009280A1EB0C014FEA1C471FFA8CFE012603
:100CE000200CB1FBF7F307FB131140EA01410EFBA7
:100CF00003F0884208D91CEB010103F1FF3802D24E
:100D0000884200F2CB804346091AA4B2B1FBF7F047
:100D100007FB101144EA01440EFB00FEA64508D96A
:100D20001CEB040400F1FF3102D2A64500F2BB80A7
:100D30000846A4EB0E0440EA03409CE7C6F12007F6
:100D4000B34022FA07FC4CEA030C20FA07F401FA3C
:100D500006F31C43F9404FEA1C4900FA06F3B1FBC5
:100D6000F9F8200C1FFA8CFE09FB181140EA01412A
:100D700008FB0EF0884202FA06F20BD91CEB0101C7
:100D800008F1FF3A80F08880884240F28580A8F11F
:100D900002086144091AA4B2B1FBF9F009FB101171
:100DA00044EA014100FB0EFE8E4508D91CEB01010F
:100DB00000F1FF346CD28E456AD90238614440EAB2
:100DC0000840A0FB0294A1EB0E01A142C846A64632
:100DD00056D353D05DB1B3EB080261EB0E0101FABB
:100DE00007F722FA06F3F1401F43C5E90071002618
:100DF0003146BDE8F087C2F12003D8400CFA02FC6E
:100E000021FA03F3914001434FEA1C471FFA8CFE7D
:100E1000B3FBF7F007FB10360B0C43EA064300FB6D
:100E20000EF69E4204FA02F408D91CEB030300F10B
:100E3000FF382FD29E422DD9023863449B1B89B2C2
:100E4000B3FBF7F607FB163341EA034106FB0EF34B
:100E50008B4208D91CEB010106F1FF3816D28B42F8
:100E600014D9023E6144C91A46EA004638E72E46C4
:100E7000284605E70646E3E61846F8E64B45A9D2BC
:100E8000B9EB020864EB0C0E0138A3E74646EAE72B
:100E9000204694E74046D1E7D0467BE7023B6144D9
:100EA00032E7304609E76444023842E7704700BF42
:100EB00008B50268034B9A4200D008BD02F0F0FC6E
:100EC000FBE700BF0020004072B6FEE700B595B01A
:100ED0003022002108A80AF085F900230393049327
:100EE0000593069307930193204A116C41F08051BA
:100EF0001164126C02F080520192019A02931C4B11
:100F00001A6842F480421A601B6803F4804302931B
:100F1000029B012308934FF48033099302230E931D
:100F20004FF480020F9206221092A822119212937F
:100F30000723139308A801F065FD98B90F230393C5
:100F400002230493002305934FF4A05306934FF418
:100F500080530793052103A801F0A2FF20B915B023
:100F60005DF804FBFFF7B0FFFFF7AEFF003802406B
:100F70000070004008B502F079FCFFF7A7FF00F011
:100F80002BF800F0FFF900F01FFA00F0DFFA00F094
:100F900071FB00F049FE00F0DDFB00F081FE00F087
:100FA0009BFE00F0B9FE00F0F9FA00F087FD00F0BA
:100FB00039FB00F0F3FC00F0C3FD05F03FFE09F043
:100FC00092F808F077FF09F057F805F0A5FA00F05D
:100FD00061F905F0B3FAFEE72DE9F0478EB0002481
:100FE00009940A940B940C940D9400945C4B1A6B26
:100FF00042F002021A631A6B02F002020092009A97
:1010000001941A6B42F040021A631A6B02F040021C
:101010000192019A02941A6B42F001021A631A6B50
:1010200002F001020292029A03941A6B42F0080243
:101030001A631A6B02F008020392039A04941A6B63
:1010400042F004021A631A6B02F004020492049A3A
:1010500005941A6B42F480721A631A6B02F4807260
:101060000592059A06941A6B42F020021A631A6BD5
:1010700002F020020692069A07941A6B42F0800250
:101080001A631A6B02F080020792079A08941A6B8F
:1010900042F010021A631B6B03F010030893089BC5
:1010A000304E2246C021304602F0E0F8DFF8BCA006
:1010B00022464FF48071504602F0D8F8DFF8B09025
:1010C00022464FF4E051484602F0D0F8DFF8A48001
:1010D00001221021404602F0C9F8234F0122114697
:1010E000384602F0C3F88023099301250A950B9531
:1010F0000C9409A9304601F0C7FF402309930A95D3
:101100000B9503230C9309A9304601F0BDFF4FF462
:10111000807309930A950B940C9409A9504601F029
:10112000B3FF4FF4E05309930A950B940C9409A96B
:10113000484601F0A9FF102309930A950B95022454
:101140000C9409A9404601F09FFF09950A950B955B
:101150000C9409A9384601F097FF0EB0BDE8F0875E
:101160000038024000200240000402400008024013
:10117000001C02400000024000B583B004F0A0FC57
:10118000019008F0AFFF08F0B1FE08F0C5FE642141
:1011900001A804F0A3FDF4E700B583B004F090FCCF
:1011A0000190054808F0ADFF08F0A6FE022101A855
:1011B00004F094FDF5E700BF8C50002000B583B02B
:1011C00004F07EFC019008F067FF0A2101A804F0FA
:1011D00085FDF8E700B583B004F072FC0190054886
:1011E00008F08FFF08F08CFE012101A804F076FDC5
:1011F000F5E700BF9850002000B583B004F060FC14
:10120000019008F085FE642101A804F067FDF8E76D
:1012100000B583B004F054FC0190054808F071FF5C
:1012200008F032FF022101A804F058FDF5E700BFE5
:101230008050002000B583B004F042FC01900548C6
:1012400008F05FFF08F060FE022101A804F046FDEF
:10125000F5E700BF7450002000B583B004F030FC07
:101260000190054808F04DFF08F05AFE0A2101A838
:1012700004F034FDF5E700BFA450002008B5044891
:1012800008F03FFF08F050FE642005F0D1F9F6E7C2
:10129000B050002008B5204A0021204805F06AF926
:1012A0001F4B18601F4A00211F4805F063F91F4BB0
:1012B00018601F4A00211F4805F05CF91E4B18609A
:1012C0001E4A00211E4805F055F91E4B18601E4AA3
:1012D00000211E4805F04EF91D4B18601D4A0021E3
:1012E0001D4805F047F91D4B18601D4A00211D4897
:1012F00005F040F91C4B18601C4A00211C4805F001
:1013000039F91C4B18601C4A00211C4805F032F9C1
:101310001B4B186008BD00BFA8DE0008791100084B
:10132000B000002088DD000899110008900000201E
:10133000ACDD0008BD11000894000020F4DD0008B9
:10134000D51100089C000020D0DD0008F91100082C
:101350009800002060DE000811120008A80000209C
:1013600084DE000835120008AC0000203CDE0008D6
:1013700059120008A400002018DE00087D120008A1
:10138000A000002008B50E480E4B03600323436005
:1013900000238360C3604FF4102202614FF40012F7
:1013A0004261037643768376C376037701234377DE
:1013B00000F014FF00B908BDFFF786FDFBE700BF92
:1013C000B80000200064004008B50E480E4B0360D2
:1013D0000323436000238360C3604FF41022026143
:1013E0004FF4001242610376437683760122C2767F
:1013F0000377427700F0F2FE00B908BDFFF764FD05
:10140000FBE700BFE00000200068004010B58AB094
:101410000023059306930793089309930368454AAD
:10142000934204D0444A93423CD00AB010BD434A90
:10143000136801331360012B27D000240194404B23
:101440001A6B42F008021A631B6B03F00803019346
:10145000019B032305930222069208930923099313
:1014600005A9384801F010FE22460521142002F09B
:10147000B7F9142002F0ECF922460521152002F0FC
:10148000AFF9152002F0E4F9CFE7002300932C4BCD
:101490001A6C42F000721A641B6C03F00073009324
:1014A000009BCAE700230293254B1A6C42F080622E
:1014B0001A641B6C03F080630293029B1F4A13683B
:1014C00001331360012B28D0002404941C4B1A6BA9
:1014D00042F002021A631B6B03F002030493049BA5
:1014E000602305930223069303230893092309939A
:1014F00005A9154801F0C8FD22460521402002F04B
:101500006FF9402002F0A4F922460521412002F0A3
:1015100067F9412002F09CF987E700230393084B09
:101520001A6C42F000721A641B6C03F00073039390
:10153000039BC9E70064004000680040B40000203D
:1015400000380240000C02400004024008B5054883
:10155000054B036002F0B6F900B908BDFFF7B4FC13
:10156000FBE700BF08010020003002400268094B81
:101570009A4200D0704782B000230193064B1A6B49
:1015800042F480521A631B6B03F480530193019B56
:1015900002B07047003002400038024010B582B0FF
:1015A000002400941E4B1A6B42F480021A631A6BDB
:1015B00002F480020092009A01941A6B42F4001225
:1015C0001A631B6B03F400130193019B2246052150
:1015D0000C2002F005F90C2002F03AF92246052110
:1015E000392002F0FDF8392002F032F922460521B7
:1015F0003A2002F0F5F83A2002F02AF922460521B5
:10160000452002F0EDF8452002F022F9224605219E
:10161000462002F0E5F8462002F01AF902B010BDAB
:101620000038024008B50548054B036002F059F93F
:1016300000B908BDFFF748FCFBE700BF1001002020
:10164000000806500268094B9A4200D0704782B0E9
:1016500000230193064B5A6B42F040025A635B6BC6
:1016600003F040030193019B02B07047000806504D
:101670000038024008B50F480F4B03604FF48273E7
:10168000436000238360C360022202610122426141
:101690004FF4007282613822C26103624362836246
:1016A0000A23C36202F0D2F900B908BDFFF70CFCAF
:1016B000FBE700BF2001002000300140F0B589B0F9
:1016C00000230393049305930693079302681E4B2C
:1016D0009A4201D009B0F0BD0024009403F5843390
:1016E0005A6C42F480525A645A6C02F4805200924E
:1016F000009A01941A6B42F002021A631A6B02F00C
:1017000002020192019A02941A6B42F001021A63DA
:101710001B6B03F001030293029B18230393022720
:101720000497032606960525079503A9074801F0A7
:10173000ABFC80230393049705940696079503A9B1
:10174000034801F0A1FCC5E700300140000402405D
:101750000000024008B50948094B03605323436069
:10176000002383604FF6FF72C2600361836102F061
:1017700017FD00B908BDFFF7A7FBFBE70802002033
:10178000001C004000B585B00368244A934215D080
:10179000234A934221D0234A934232D0224A934291
:1017A00018D100230393214B1A6C42F080021A6473
:1017B0001B6C03F080030393039B0BE00023009357
:1017C0001A4B5A6C42F001025A645B6C03F001033D
:1017D0000093009B05B05DF804FB00220192134BBF
:1017E000596C41F0020159645B6C03F002030193F0
:1017F000019B05212D2001F0F3FF2D2002F028F898
:10180000E8E700230293094B5A6C42F400325A6411
:101810005B6C03F400330293029BDBE700000140A2
:101820000004014000440140001C00400038024018
:101830000268094B9A4200D0704782B0002301939E
:10184000064B1A6C42F004021A641B6C03F004038A
:101850000193019B02B0704700080040003802402D
:1018600070B58AB0002305930693079308930993F4
:101870000368404A93420AD03F4A934234D03F4AD9
:10188000934248D03E4A93425CD00AB070BD0024D7
:1018900000943C4B1A6B42F001021A631A6B02F07F
:1018A00001020092009A01941A6B42F010021A632E
:1018B0001B6B03F010030193019B4FF440630593EE
:1018C000022606960125099505A92F4801F0DCFBA3
:1018D0004FF420630593069607940894099505A98B
:1018E0002A4801F0D1FBD0E700230293254B1A6B65
:1018F00042F008021A631B6B03F008030293029B79
:101900004FF48043059302230693099305A92048C9
:1019100001F0BAFBB9E7002303931A4B1A6B42F4A8
:1019200080721A631B6B03F480730393039B202361
:101930000593022306930323099305A9154801F093
:10194000A3FBA2E7002304930E4B1A6B42F0200284
:101950001A631B6B03F020030493049B402305933D
:10196000022306930323099305A90B4801F08CFB7E
:101970008BE700BF00000140000800400004014068
:1019800000440140003802400000024000100240C4
:10199000000C0240002002400014024010B596B036
:1019A000002412941394149415941094119409948F
:1019B0000A940B940C940D940E940F9420222146BB
:1019C00001A809F00FFC3B483B4B0360A723436091
:1019D000846044F61F63C36004614461846102F063
:1019E000DFFB00284BD14FF48053129312A93148EA
:1019F00002F0E1FC002845D12E4802F0FDFB002852
:101A000043D100231093119310A92A4802F0A8FD96
:101A100000283DD16023099300220A920B920C9278
:101A20000D920E920F9209A9224802F049FC00285B
:101A300031D1042209A91F4802F042FC70BB0822E0
:101A400009A91C4802F03CFC58BB0C2209A9194802
:101A500002F036FC40BB00230193029303930493EE
:101A600005934FF400520692089301A9114802F021
:101A7000BDFDE0B90F48FFF7F3FE16B010BDFFF74C
:101A800023FAB0E7FFF720FAB6E7FFF71DFAB8E749
:101A9000FFF71AFABEE7FFF717FACAE7FFF714FADB
:101AA000CDE7FFF711FAD0E7FFF70EFAD3E7FFF71C
:101AB0000BFADFE7780100200000014000B58BB091
:101AC00000230893099301930293039304930593CE
:101AD000069307931848194A0260532242608360B4
:101AE0004FF6FF72C2600361836102F085FBC8B9E3
:101AF00000230893099308A90F4802F031FDA0B90B
:101B0000602301930023029303930593082201A904
:101B1000094802F0D5FB58B90748FFF7A1FE0BB002
:101B20005DF804FBFFF7D0F9E2E7FFF7CDF9E7E74F
:101B3000FFF7CAF9F0E700BF50020020000800409C
:101B400010B596B000241294139414941594109424
:101B5000119409940A940B940C940D940E940F9480
:101B60002022214601A809F03DFB2D482D4B0360A2
:101B7000A7234360846044F61F63C360046144612B
:101B8000846102F00DFB002837D14FF4805312938B
:101B900012A9234802F00FFC002831D1204802F09E
:101BA0002BFB00282FD100231093119310A91C4860
:101BB00002F0D6FC50BB6023099300220A920B92DC
:101BC0000C920D920E920F9209A9154802F078FB23
:101BD000F8B90023019302930393049305934FF400
:101BE00000520692089301A90D4802F0FFFC98B933
:101BF0000B48FFF735FE16B010BDFFF765F9C4E7D7
:101C0000FFF762F9CAE7FFF75FF9CCE7FFF75CF986
:101C1000D1E7FFF759F9DCE7FFF756F9E8E700BF2E
:101C2000980200200004014000B589B00023019310
:101C30000293039304930593069307931648174A58
:101C40000260A7224260836040F2E732C260036113
:101C50008023836102F0A4FAA0B90F4802F0CCFA05
:101C600098B960230193002202920392059201A980
:101C7000094802F025FB58B90748FFF7F1FD09B004
:101C80005DF804FBFFF720F9E7E7FFF71DF9E8E748
:101C9000FFF71AF9F0E700BFC0010020004401403F
:101CA00008B50A480A4B03600A4B4360002383606F
:101CB000C36003610C2242618361C36102F0B8FD1D
:101CC00000B908BDFFF700F9FBE700BFC004002022
:101CD0000010014060E3160008B50C480C4B03608F
:101CE0000C4B43604FF4805383600023C3604FF478
:101CF000806202610C2242618361C36102F098FD3F
:101D000000B908BDFFF7E0F8FBE700BF04050020BD
:101D100000480040A086010008B50A480A4B03604D
:101D20004FF4E133436000238360C36003610C22FE
:101D300042618361C36102F07BFD00B908BDFFF71A
:101D4000C3F8FBE748050020001401402DE9F043EB
:101D50008DB0044600230793089309930A930B93CD
:101D600003689D4A93420AD09C4A934200F08780C0
:101D70009B4A934200F0CA800DB0BDE8F083002575
:101D80000095984B5A6C42F010025A645A6C02F05B
:101D900010020092009A01951A6B42F002021A6337
:101DA0001A6B02F002020192019A02951A6B42F03C
:101DB00001021A631B6B03F001030293029B802351
:101DC00007934FF00209CDF820904FF00108CDF8AD
:101DD000248003270A9707260B9607A9824801F05B
:101DE00053F94FF400730793CDF82090CDF8248079
:101DF0000A970B9607A97D4801F046F97C487D4B70
:101E000003604FF00063436040238360C5604FF47C
:101E10008063036145618561C5614FF400330362EE
:101E2000456201F0B3FA20BB714B63639C63724857
:101E3000724B03604FF00063436000238360C36014
:101E40004FF48062026143618361C3614FF40032E9
:101E50000262436201F09AFA70B9674BA3639C6314
:101E600000220521252001F0BBFC252001F0F0FC1B
:101E700082E7FFF729F8D7E7FFF726F8EDE7002517
:101E80000395584B1A6C42F480221A641A6C02F4BF
:101E900080220392039A04951A6B42F004021A639B
:101EA0001B6B03F004030493049B4FF440630793FC
:101EB0000223089303230A9307230B9307A950488F
:101EC00001F0E2F84F48504B03604FF0006343606D
:101ED0008560C5604FF48063036145618561C561BC
:101EE0004FF440330362456201F050FA58B9454B54
:101EF000A3639C6300220521272001F071FC2720A9
:101F000001F0A6FC38E7FEF7DFFFF0E700250595B6
:101F1000344B5A6C42F020025A645A6C02F0200290
:101F20000592059A06951A6B42F040021A631B6BE4
:101F300003F040030693069B4FF484430793022368
:101F4000089303230A9308230B9307A92F4801F052
:101F50009BF82F482F4B03604FF020634360856050
:101F6000C5604FF480630361456185614FF4807300
:101F7000C3614FF400330362456201F007FA28BBE6
:101F8000234BA3639C632448244B03604FF02063DE
:101F90004360402383600023C3604FF4806202618A
:101FA00043618361C3614FF400320262436201F016
:101FB000EDF970B9184B63639C630022052147203B
:101FC00001F00EFC472001F043FCD5E6FEF77CFF54
:101FD000D6E7FEF779FFEDE700100140004800402A
:101FE000001401400038024000040240000002409A
:101FF00040030020B8640240E00200204064024038
:1020000000080240A003002028600240001802409F
:10201000000400202864024060040020A064024004
:10202000FEE7FEE7FEE7FEE7FEE7704708B5024879
:1020300001F0D6FA08BD00BFA003002008B5024891
:1020400000F0BBFB08BD00BFB800002008B5024887
:1020500000F0B3FB08BD00BFB800002010B5044C71
:10206000204602F033FD204608F028FB10BD00BFDB
:10207000C004002010B5044C204602F027FD204685
:1020800008F01CFB10BD00BF0405002008B5034884
:1020900001F064FF024801F061FF08BD98020020D2
:1020A0008C05002008B5024801F09AFA08BD00BF6F
:1020B0000004002008B5024801F092FA08BD00BFF4
:1020C000E002002008B5024800F077FB08BD00BF21
:1020D000E000002008B5024800F06FFB08BD00BF1B
:1020E000E000002008B5024801F07AFA08BD00BF00
:1020F0006004002008B5024801F072FA08BD00BF74
:102100004003002010B5044C204602F0DFFC2046BE
:1021100008F0D4FA10BD00BF4805002000B583B018
:10212000002200920D4B596C41F480415964596C66
:1021300001F48041009100990192196C41F08051A5
:1021400019641B6C03F080530193019B0F216FF006
:10215000010001F045FB03B05DF804FB00380240CC
:1021600010B588B0014600222D2001F039FB2D204A
:1021700001F06EFB00240194144B1A6C42F480723F
:102180001A641B6C03F480730193019B02A903A8DA
:1021900000F05CFF00F03AFF43000D48A0FB032372
:1021A0009B0C013B0B480C4A026040F2E732C260D4
:1021B00043600461846001F0F3FF10B1012008B0B6
:1021C00010BD044801F082FEF9E700BF003802406C
:1021D00083DE1B438C05002000200040002800F017
:1021E000A18038B5044690F82030D3B12268136836
:1021F00043F00103136001F05FFB054623685A6852
:1022000012F0010F10D101F057FB401B0A28F5D93D
:10221000636A43F400336362052384F820300120AD
:1022200038BDFFF7F3F8E1E71A6822F002021A60FE
:1022300001F042FB054623685A6812F0020F0DD0E8
:1022400001F03AFB401B0A28F5D9636A43F40033D6
:102250006362052384F820300120E1E7227E012A11
:102260003DD01A6822F080021A60637E012B3BD0B9
:102270002268136823F040031360A37E012B39D03A
:102280002268136823F020031360E37E012B37D00C
:102290002268136843F010031360237F012B35D0AD
:1022A0002268136823F008031360637F012B33D087
:1022B0002268136823F004031360A368E2681343E1
:1022C00022691343626913436268013A2168134328
:1022D000CB6100206062012384F82030A0E71A68F7
:1022E00042F080021A60C0E72268136843F040039E
:1022F0001360C2E72268136843F020031360C4E749
:102300002268136823F010031360C6E7226813687D
:1023100043F008031360C8E72268136843F004031E
:102320001360CAE70120704790F82030013BDBB210
:10233000012B05D9436A43F480234362012070478F
:1023400030B5464BD3F8002242F00102C3F8002218
:10235000D3F8002222F47C52C3F80022D3F80022E2
:10236000486A42EA0022C3F800224A6902F01F02CA
:10237000012000FA02F2D3F81C026FEA020C20EAF4
:102380000200C3F81C02CB69C3B9344BD3F80C026A
:102390000CEA0000C3F80C028C884869CD6844EA56
:1023A0000544483043F830408C68088840EA0440CF
:1023B0004C6904F1480E03EBCE035860CB69012B46
:1023C0001ED08B69002B33D12448D0F804320CEA9C
:1023D0000303C0F804320B698BBB2048D0F81432D9
:1023E0000CEA0303C0F814320B6A012B2ED01B4AEF
:1023F000D2F8003223F00103C2F80032002030BDD1
:10240000164BD3F80C021043C3F80C028C884869B1
:102410000D6844EA0544483043F8304088894C69E7
:102420008D6840EA0540483403EBC4035860C8E7B0
:102430000A48D0F804321343C0F80432CBE7074807
:10244000D0F814321343C0F81432CDE70349D1F861
:102450001C321A43C1F81C22C9E700BF00640040C7
:1024600070B5044690F82050EDB2012D06D0436AB5
:1024700043F4002343620125284670BD022380F8FF
:1024800020300268136823F00103136001F014FA8E
:10249000064623685B6813F0010F0CD001F00CFABC
:1024A000831B0A2BF5D9636A43F400336362052367
:1024B00084F82030E0E700256562DDE730B590F86C
:1024C00020C00468A4680CF1FF3C5FFA8CFCBCF1EE
:1024D000010F6BD814F0E05F62D0C4F3016CBCF163
:1024E000020F05D9436A43F400034362012062E00E
:1024F000012404FA0CF41C608B68002B3DD10D689C
:10250000CB68046843EA45550CF118031B01E550FC
:1025100003680C690CF1180E03EB0E135C600B7D65
:10252000012B35D0D17993791B0443EA01635179AA
:1025300043EA012314790168234301EB0C11C1F82C
:102540008C31D17893781B0443EA0163517843EAD4
:102550000123117802680B4302EB0C12C2F8883198
:1025600002680CF1180C4FEA0C1C52F80C3043F0C6
:10257000010342F80C3000201DE04C6843EAC4031C
:10258000CC6823430CF11804240105682B51BFE7E4
:10259000036803EB0E13596841F480715960C1E779
:1025A000436A43F400134362012004E0436A43F4A6
:1025B00080234362012030BD90F82030013BDBB224
:1025C000012B05D9436A43F48023436201207047FD
:1025D00011F0010F04D00268936843F08003936008
:1025E00011F0020F04D00268936843F40043936033
:1025F00011F0040F04D00268936843F40003936061
:102600000020704790F82030013BDBB2012B01D94C
:10261000002070470368986810F0806000D00120A7
:102620009A6812F0006F00D001309B6813F0805F51
:10263000EFD00130704790F820C00CF1FF3C5FFAFA
:102640008CFCBCF1010F00F2958030B451B90468E4
:10265000E46814F0030F10D1436A43F4001343629B
:10266000012077E00468246914F0030F05D1436A60
:1026700043F40013436201206CE001F11B042401C8
:1026800005682C5904F004049460002C64D101F115
:102690001B04240105682C59640D1460046801F1C1
:1026A0001B0C4FEA0C1C54F80C4004F00204D460DC
:1026B00004686444646804F00F04146104686444AA
:1026C0006468C4F307249461046864446468240C57
:1026D0005461026802EB0112D2F8B8211A70026844
:1026E00002EB0112D2F8B821C2F307225A70026835
:1026F00002EB0112D2F8B821C2F307429A700268C5
:1027000002EB0112D2F8B821120EDA70026802EB65
:102710000112D2F8BC211A71026802EB0112D2F840
:10272000BC21C2F307225A71026802EB0112D2F8EF
:10273000BC21C2F307429A71026802EB0112D2F87F
:10274000BC21120EDA7179B90268D36843F0200314
:10275000D360002030BC704701F11B0424010568E0
:102760002C59E408546099E70268136943F0200388
:102770001361EEE7436A43F480234362012070470C
:1027800090F82030013BDBB2012B05D9436A43F4BA
:1027900080234362012070470268536919435161E5
:1027A0000020704770477047704770477047704708
:1027B000704770477047704770472DE9F84F0546DE
:1027C00003685C69D3F804809F68D3F80CB0D3F831
:1027D00010A0D3F8189014F001063BD017F00106B2
:1027E00016D001229A6017F0020F08D117F0040FDB
:1027F0000CD117F0080606D04FF4805608E0FFF71A
:10280000D1FF002604E0FFF7D0FF01E04FF400669F
:1028100017F4807F0DD02B684FF480729A6017F404
:10282000007F40F0868017F4806F00F0868046F4C9
:10283000005617F4803F0DD02B684FF480329A6019
:1028400017F4003F40F0838017F4802F00F083805E
:1028500046F4004614F0080F07D01BF0100F04D008
:1028600046F400762B681022DA6014F0040F02D0D0
:102870001BF0080F79D114F0020F04D02B68DB682D
:1028800013F0030F78D114F0400F07D01AF0100F97
:1028900004D046F480662B6810221A6114F0200FD1
:1028A00002D01AF0080F6BD114F0100F04D02B686F
:1028B0001B6913F0030F6AD114F4003F02D018F023
:1028C000100F68D114F4803F02D018F0080F69D1BE
:1028D00014F4004F7AD018F0040F74D014F4807FF1
:1028E00004D019F0010F01D046F0010614F4007F66
:1028F00004D019F0020F01D046F0020614F4806FE4
:1029000004D019F0040F01D046F0040614F4006F4F
:1029100059D019F0700956D0B9F1400F65D058D888
:10292000B9F1200F5ED0B9F1300F42D146F0200648
:1029300044E02846FFF737FF7BE717F4006F02D02B
:1029400046F4804675E72846FFF730FF71E72846D2
:10295000FFF72AFF7EE717F4002F02D046F48036F7
:1029600078E72846FFF723FF74E72B680822DA6030
:102970002846FFF71DFF7EE7284607F091FD82E716
:102980002B6808221A612846FFF713FF8CE72846B8
:1029900007F08BFD90E72B6810225A602846FFF75E
:1029A00009FF8FE72B6808225A602846FFF703FFCC
:1029B0008EE7B9F1100F01D146F008062A68936935
:1029C00023F0700393612B6804225A609EB9BDE81E
:1029D000F88FB9F1500F0BD0B9F1600FEED146F47A
:1029E0008076EBE746F01006E8E746F04006E5E7BC
:1029F00046F08006E2E76B6A1E436E622846FFF7E8
:102A0000DBFEE4E7002800F0E08170B582B0044608
:102A1000036813F0010F3BD09F4B9B6803F00C033E
:102A2000042B2CD09C4B9B6803F00C03082B21D06B
:102A30006368B3F5803F4FD0B3F5A02F52D0964BCB
:102A40001A6822F480321A601A6822F480221A600E
:102A50006368002B50D000F02FFF05468E4B1B689B
:102A600013F4003F14D100F027FF401B6428F5D970
:102A70000320B1E1884B5B6813F4800FD8D0864BFC
:102A80001B6813F4003F03D06368002B00F09F81A4
:102A9000236813F0020F54D07F4B9B6813F00C0F88
:102AA0003ED07D4B9B6803F00C03082B33D0E368CA
:102AB000002B68D0794B01221A6000F0FDFE05461C
:102AC000754B1B6813F0020F54D100F0F5FE401B4C
:102AD0000228F5D903207FE16F4A136843F480335D
:102AE0001360B5E76C4B1A6842F480221A601A68CA
:102AF00042F480321A60ABE700F0DEFE0546664B1A
:102B00001B6813F4003FC3D000F0D6FE401B6428BE
:102B1000F5D9032060E1604B5B6813F4800FC6D1E8
:102B20005D4B1B6813F0020F03D0E368012B40F0EC
:102B30005081594A136823F0F803216943EAC1031D
:102B40001360236813F0080F42D063696BB3534BD3
:102B50000122C3F8802E00F0AFFE05464E4B5B6F9E
:102B600013F0020F34D100F0A7FE401B0228F5D964
:102B7000032031E1484A136823F0F803216943EA4E
:102B8000C1031360DDE7454B00221A6000F094FE9C
:102B90000546414B1B6813F0020FD2D000F08CFEAB
:102BA000401B0228F5D9032016E13C4B0022C3F854
:102BB000802E00F081FE0546374B5B6F13F0020F4D
:102BC00006D000F079FE401B0228F5D9032003E16E
:102BD000236813F0040F77D02F4B1B6C13F0805F2A
:102BE00033D1002301932C4B1A6C42F080521A64AB
:102BF0001B6C03F080530193019B0125284B1B683C
:102C000013F4807F23D0A368012B34D0052B38D058
:102C1000214B1A6F22F001021A671A6F22F0040288
:102C20001A67A368002B3DD000F046FE06461A4BFB
:102C30001B6F13F0020F46D100F03EFE801B41F2E5
:102C400088339842F3D90320C6E00025D6E7144A1A
:102C5000136843F48073136000F02EFE0646104B99
:102C60001B6813F4807FCED100F026FE801B022863
:102C7000F5D90320B0E0084A136F43F0010313674E
:102C8000CFE7054B1A6F42F004021A671A6F42F041
:102C900001021A67C5E700BF003802400000474242
:102CA0000070004000F008FE0646524B1B6F13F008
:102CB000020F08D000F000FE801B41F288339842DA
:102CC000F3D9032088E0EDB9A369002B00F08380DD
:102CD000484A926802F00C02082A51D0022B17D001
:102CE000454B00221A6600F0E7FD0446414B1B6885
:102CF00013F0007F42D000F0DFFD001B0228F5D961
:102D0000032069E03B4A136C23F080531364DBE734
:102D1000394B00221A6600F0CFFD0546354B1B6883
:102D200013F0007F06D000F0C7FD401B0228F5D944
:102D3000032051E0E369226A1343626A43EA821383
:102D4000A26A5208013A43EA0243E26A43EA026392
:102D5000284A5360284B01221A6600F0ADFD044654
:102D6000244B1B6813F0007F06D100F0A5FD001B6B
:102D70000228F5D903202FE000202DE000202BE0D1
:102D8000012B2BD01B4B5B6803F48001E26991425D
:102D900026D103F03F02216A8A4223D1616A47F6B5
:102DA000C0721A40B2EB811F1ED103F44031A26AF7
:102DB0005208013AB1EB024F18D103F07063E26A96
:102DC000B3EB026F14D1002006E001207047012010
:102DD00002E0012000E0002002B070BD0120FBE70E
:102DE0000120F9E70120F7E70120F5E70120F3E7EB
:102DF0000120F1E7003802400000474208B5254BAA
:102E00009B6803F00C03042B3FD0082B3FD1214BD0
:102E10005A6802F03F025B6813F4800F12D01D4B1A
:102E20005968C1F388111C480023A1FB0001FDF77C
:102E3000BDFE184B5B68C3F3014301335B00B0FB7D
:102E4000F3F025E0134B5968C1F3881C4FEA4C118D
:102E5000B1EB0C006EEB0E0E4FEA8E1343EA90635B
:102E60008101091A63EB0E03DB0043EA5173C900C9
:102E700011EB0C0C43F10003990200234FEA8C2064
:102E800041EA9C51FDF792FED3E7034800E0034876
:102E900008BD00BF00380240001BB7000024F4004A
:102EA000002800F09B8070B50D4604464F4B1B6810
:102EB00003F007038B4208D2CBB24C4A137013685D
:102EC00003F007038B4240F08B80236813F0020F5E
:102ED00017D013F0040F04D0454A936843F4E0532D
:102EE0009360236813F0080F04D0414A936843F4B9
:102EF000604393603E4A936823F0F003A1680B435C
:102F00009360236813F0010F32D06368012B21D046
:102F10009A1E012A25D9364A126812F0020F61D092
:102F200033498A6822F0030213438B6000F0C4FC2B
:102F300006462F4B9B6803F00C036268B3EB820FCD
:102F400016D000F0B9FC801B41F288339842F0D9CA
:102F5000032042E0264A126812F4003FE0D101202B
:102F60003BE0234A126812F0007FD9D1012034E0FF
:102F70001E4B1B6803F00703AB4207D9EAB21B4B99
:102F80001A701B6803F00703AB422DD1236813F0BE
:102F9000040F06D0164A936823F4E053E1680B430C
:102FA0009360236813F0080F07D0114A936823F445
:102FB0006043216943EAC1039360FFF71FFF0C4B95
:102FC0009B68C3F303130B4AD35CD8400A4B1860C9
:102FD0000A4B1868FFF7C4F8002070BD0120704745
:102FE0000120FAE70120F8E70120F6E7003C024063
:102FF00000380240D4DE0008080000200400002051
:10300000014B1868704700BF0800002008B5FFF7A3
:10301000F7FF044B9B68C3F38223034AD35CD84079
:1030200008BD00BF00380240E4DE000808B5FFF725
:10303000E7FF044B9B68C3F34233034AD35CD84099
:1030400008BD00BF00380240E4DE00080F23036023
:103050000B4B9A6802F0030242609A6802F0F00299
:1030600082609A6802F4E052C2609B68DB0803F455
:10307000E0530361034B1B6803F007030B607047C9
:1030800000380240003C024000230F2B00F2E48095
:1030900070B582B060E085685E000324B44025EA24
:1030A0000405CC68B4402C438460456825EA0205D9
:1030B0004C68C4F300129A402A4342605AE0DC088C
:1030C000083450F8246003F0070295000F22AA404C
:1030D00026EA020E0A69AA4042EA0E0240F82420BB
:1030E0005CE0072200E0002202FA0EF22A430234DA
:1030F0005A4D45F824205A4A94686FEA0C0224EA93
:103100000C054E6816F4801F01D04CEA0405544C9F
:10311000A560E46802EA04054E6816F4001F01D0B9
:103120004CEA04054E4CE560646802EA04054E680A
:1031300016F4003F01D04CEA0405494C6560246850
:1031400022404D6815F4803F01D04CEA0402444C03
:10315000226001330F2B7DD801229A400C6804EACB
:10316000020C32EA0404F4D14C6804F00304013C7C
:10317000012C90D94A6802F00302032A09D0C468DE
:103180005D000322AA4024EA02048A68AA4022437E
:10319000C2604A6802F00302022A90D004684FEA33
:1031A000430E032202FA0EF224EA02044A6802F0F5
:1031B000030202FA0EF2224302604A6812F4403F10
:1031C000C7D000220192274A546C44F480445464CE
:1031D000526C02F480420192019A9C08A51C1F4A7D
:1031E00052F8255003F003024FEA820E0F2202FA32
:1031F0000EF225EA02051C4A90423FF474AF02F534
:10320000806290421AD002F58062904218D002F596
:103210008062904216D002F58062904214D002F58E
:103220008062904212D002F58062904210D002F586
:10323000806290423FF455AF082255E7012253E7E0
:10324000022251E703224FE704224DE705224BE714
:10325000062249E702B070BD704700BF0038014048
:10326000003C014000380240000002400AB1816188
:103270007047090481617047436901EA030221EA4A
:10328000030141EA02418161704730B405682C684E
:1032900024F480242C60046863608368402B05D08C
:1032A000036899600368DA6030BC704703689A600D
:1032B0000368D960F8E7000010B40368D9B2103988
:1032C0000C4AA2FB014212090B4CA25CC2655F29A9
:1032D00009D923F47F7323F0030304338365806DDE
:1032E0005DF8044B704723F47F7323F00303836579
:1032F000F5E700BFABAAAAAACCDE0008836A826900
:1033000092B9012B0AD0022B02D00BB100207047DA
:10331000C36A13F0807F28D100207047C36AB3F1DD
:10332000C07F24D000207047B2F5005F09D0022B87
:1033300025D9032B25D1C36A13F0807F23D1002028
:103340007047032B03D8DFE803F01404140A0020AD
:103350007047C36A13F0807F0DD100207047C36AA5
:10336000B3F1C07F09D000207047012070470120D1
:1033700070470120704701207047012070470120ED
:1033800070470020704701207047000070B5044668
:1033900000F092FA002C5BD00546022384F8353009
:1033A000002384F834302268136823F0010313608B
:1033B00023681A6812F0010F0AD000F07DFA431B4F
:1033C000052BF5D920236365032084F8350070BDF3
:1033D0001A68204810406168A2680A43E1680A43FD
:1033E00021690A4361690A43A1690A43E1690A4301
:1033F000216A0A430243616A04291ED01A602668C2
:10340000756925F00705636A1D43042B07D1A36A7C
:103410001D43E36A1BB12046FFF770FF90B9756149
:103420002046FFF749FFE26D3F2393408360002071
:103430006065012384F83530C9E7E16A206B0143F8
:103440000A43DBE740236365012084F83500BEE7CB
:103450000120BCE73F8010F000282DD038B505468C
:1034600090F83500C0B2022825D02A68136823F0EE
:10347000010313602B6800241C602B685C602B68C0
:103480009C602B68DC602B681C612B6821225A61D0
:103490002846FFF711FFEC632C646C64AC64EC64A9
:1034A0002C65EA6D3F23934083606C6585F8354059
:1034B00085F83440204638BD0120704738B50446B1
:1034C000856D90F8340001282BD0012084F8340059
:1034D00094F83500C0B2012804D0002384F83430B9
:1034E000022038BD022084F83500002060652046A7
:1034F000FFF7CBFEE26D3F239340AB602268136879
:1035000043F016031360236C23B12268136843F061
:10351000080313602268136843F00103136000205E
:10352000DFE70220DDE770B50446866D00F0C4F9E0
:1035300094F83530DBB2022B06D08023636500237C
:1035400084F83430012070BD05462268136823F0EA
:10355000160313602268536923F080035361236CC0
:10356000E3B12268136823F008031360226813682C
:1035700023F00103136023681B6813F0010F11D0BF
:1035800000F09AF9431B052BF5D92023636503202E
:1035900084F83500002384F83430D4E7A36C002B82
:1035A000DFD1E3E7E26D3F239340B360012384F86A
:1035B0003530002084F83400C5E790F83530DBB2B0
:1035C000022B03D08023436501207047052380F838
:1035D00035300268136823F0010313600020704740
:1035E000F0B583B0044600230193724B1D68724B03
:1035F000A3FB0535AD0A876D3E68C26D0823934075
:10360000334210D003681A6812F0040F0BD01A6806
:1036100022F004021A60C26D08239340BB60436D20
:1036200043F001034365E26D01239340334209D027
:103630002268526912F0800F04D0BB60636D43F0C2
:1036400002036365E26D04239340334209D022688C
:10365000126812F0020F04D0BB60636D43F00403E4
:103660006365E26D10239340334224D022681268D0
:1036700012F0080F1FD0BB6023681A6812F4802F65
:103680000DD01B6813F4002F04D1236C9BB120468E
:10369000984710E0A36C73B1204698470BE01A6876
:1036A00012F4807F03D11A6822F008021A60236C9A
:1036B0000BB120469847E26D20239340334255D00A
:1036C0002268126812F0100F50D0BB6094F83530A9
:1036D000DBB2052B0ED023681A6812F4802F33D08A
:1036E0001B6813F4002F2AD1636C002B3ED02046B8
:1036F00098473BE02268136823F0160313602268A2
:10370000536923F080035361236CA3B122681368CB
:1037100023F008031360E26D3F239340BB60012355
:1037200084F83530002384F83430236D002B3FD0EB
:10373000204698473CE0A36C002BE7D1EBE7E36B16
:10374000A3B12046984711E01A6812F4807F09D18E
:103750001A6822F010021A60012384F83530002321
:1037600084F83430E36B0BB120469847636DFBB1AE
:10377000636D13F0010F17D0052384F835302268EC
:10378000136823F001031360019B01330193AB42E3
:1037900004D823681B6813F0010FF5D1012384F8C6
:1037A0003530002384F83430E36C0BB12046984761
:1037B00003B0F0BD08000020B5814E1B074AD36856
:1037C00023F4E0631B041B0C000200F4E0600343DD
:1037D00043F0BF6343F40033D360704700ED00E073
:1037E00000B5194BDB68C3F30223C3F1070CBCF12E
:1037F000040F28BF4FF0040C03F1040EBEF1060FB6
:1038000018D9033B4FF0FF3E0EFA0CFC21EA0C01E5
:1038100099400EFA03F322EA0303194300280BDB55
:103820000901C9B200F1604000F5614080F8001361
:103830005DF804FB0023E5E700F00F000901C9B2C1
:10384000024B1954F4E700BF00ED00E014ED00E076
:10385000002807DB00F01F02400901239340024AC1
:1038600042F82030704700BF00E100E008B50B4B84
:103870001A6842F400721A601A6842F480621A6090
:103880001A6842F480721A600320FFF797FF052040
:10389000FEF766FCFEF742FC002008BD003C02403B
:1038A000034A1168034B1B780B441360704700BF39
:1038B000D405002000000020014B1868704700BFAD
:1038C000D405002058B110B5044643791BB101233B
:1038D0006371002010BD0371FDF748FEF7E701207A
:1038E000704798B110B5044643795BB10223637108
:1038F0002268136843F004031360012363710020FE
:10390000A06010BD0371FDF79DFEEFE70120704739
:103910002DE9F04782B00546884617461E46FFF758
:10392000CBFF0A9B1B1A03EB0609FFF7C5FF824674
:103930002B4B1B68C3F3CB3309FB03F301932B68B9
:103940009C6838EA04030CBF4FF0010C4FF0000CE8
:10395000BC4540D0B6F1FF3FF1D0FFF7ADFFA0EB83
:103960000A0048450AD2B9F1000F07D0019A02B106
:103970004A46019B013B01939146E0E72A68536860
:1039800023F0E00353606B68B3F5827F0BD0AB6A22
:10399000B3F5005F14D0012385F85130002385F87A
:1039A0005030032018E0AB68B3F5004F02D0B3F5F8
:1039B000806FECD12A68136823F040031360E6E7B8
:1039C0002A68136823F4005313602A68136843F4C9
:1039D00000531360DFE7002002B0BDE8F08700BFAE
:1039E0000800002010B584B00446164B1868164B2A
:1039F000A3FB0030400D4FF47A7303FB00F00390FB
:103A00006368B3F5827F0BD0039BBBB1039B013B83
:103A1000039323689B6813F0800FF5D100200EE01C
:103A200000920B46002280212046FFF771FF30B143
:103A3000636D43F020036365032000E0002004B0C1
:103A400010BD00BF08000020819F5E1600285AD0DC
:103A500010B50446436A33B94368B3F5827F05D095
:103A60000023C36102E00023036143610023A362DA
:103A700094F85130002B40D0022384F85130226852
:103A8000136823F040031360636803F48273A26831
:103A900002F404421343E26802F400621343226911
:103AA00002F002021343626902F001021343A269A9
:103AB00002F400721343E26902F038021343226AEF
:103AC00002F080021343A26A02F4005221681343F9
:103AD0000B60638B03F00403626A02F0100221683A
:103AE00013434B602268D36923F40063D361002041
:103AF0006065012384F8513010BD84F850302046B1
:103B0000FDF7DCFDB8E7012070472DE9F04383B0F5
:103B10001F460A9D90F85030012B00F0108104469A
:103B200088469146012380F85030FFF7C5FE0646CF
:103B300094F85130DBB26268012B0AD0B2F5827F73
:103B400040F0E380A268002A40F0E980042B40F0B6
:103B5000E880B8F1000F00F0E680B9F1000F00F046
:103B6000E480002F00F0E38094F85130DBB2042BA6
:103B700002D0052384F8513000236365C4F83890DF
:103B8000E787A787C4F83080E786A7862364636445
:103B900023681A6812F0400F03D11A6842F04002FD
:103BA0001A60E368B3F5006F11D063680BB1012FA1
:103BB0000BD1226B236812781A73236B01332363B2
:103BC000E38E9BB2013B9BB2E38601276BE0636807
:103BD0000BB1012F0BD1226B23681288DA60236BA3
:103BE00002332363E38E9BB2013B9BB2E386012742
:103BF0001CE023689A6812F0010F0ED0E28F92B297
:103C00005AB1DA68A36B1A80A36B0233A363E38F04
:103C10009BB2013B9BB2E3870127FFF74DFE801B60
:103C2000A84203D3B5F1FF3F40F08380E38E9BB2FF
:103C30001BB9E38F9BB2002B53D023689A6812F014
:103C4000020FD6D0E28E92B2002AD2D0002FD0D06E
:103C5000226B1288DA60236B02332363E38E9BB2FC
:103C6000013B9BB2E3860027C3E723689A6812F002
:103C7000010F0ED0E28F92B25AB1DA68A36B1A70BC
:103C8000A36B0133A363E38F9BB2013B9BB2E3873A
:103C90000127FFF711FE831BAB4202D3B5F1FF3FB3
:103CA00049D1002D49D0E38E9BB213B9E38F9BB26B
:103CB000BBB123689A6812F0020FD6D0E28E92B29E
:103CC000002AD2D0002FD0D0226B12781A73236B27
:103CD00001332363E38E9BB2013B9BB2E386002753
:103CE000C3E7324629462046FFF77CFE48B9A36861
:103CF00063B901932368DA6801929B680193019B81
:103D000004E020236365012000E00220012384F801
:103D10005130002384F8503003B0BDE8F083022016
:103D2000F4E70220F2E70120F0E70120EEE70120AE
:103D3000ECE70320EAE70320E8E70320E6E70220B8
:103D4000EAE7000030B4036A23F001030362036A68
:103D50004268846924F073040D682C4323F0020C3C
:103D60008B6843EA0C03104DA84203D005F580652B
:103D7000A84205D123F00803CD682B4323F00403A8
:103D8000094DA84203D005F58065A84205D122F46B
:103D900040724D692A438D692A43426084614A68B2
:103DA0004263036230BC70470000014030B4036AD4
:103DB00023F480730362036A4268C46924F0730CBD
:103DC0000C6844EA0C0523F400738C6843EA04236E
:103DD000114CA04203D004F58064A04206D123F424
:103DE0000063CC6843EA042323F480630A4CA042B6
:103DF00003D004F58064A04207D122F440524C69FC
:103E000042EA04128C6942EA04124260C5614A68BF
:103E1000C263036230BC70470000014030B4036AE3
:103E200023F480530362036A4468C26922F4E642C1
:103E30000D6842EA052223F400538D6843EA0533F6
:103E4000094DA84203D005F58065A84204D124F4A9
:103E500080444D6944EA85144460C2614A68026442
:103E6000036230BC704700BF0000014010B4036A19
:103E7000046A24F001040462846924F0F00C4CEA22
:103E8000021223F00A030B43826103625DF8044BC4
:103E9000704710B4046A24F0100404628469036A51
:103EA00024F4704C4CEA023223F0A00343EA0113DD
:103EB000826103625DF8044B7047836823F07003EE
:103EC0000B4343F0070383607047000090F83D30D8
:103ED000DBB2012B37D1022380F83D300268D36872
:103EE00043F00103D3600368194A934220D0B3F131
:103EF000804F1DD0A2F57C42934219D002F580621A
:103F0000934215D002F58062934211D002F57842B7
:103F100093420DD002F57052934209D0A2F594322B
:103F2000934205D01A6842F001021A6000207047DF
:103F30009A6802F00702062A07D01A6842F00102C6
:103F40001A6000207047012070470020704700BFB2
:103F500000000140704770477047704710B5044635
:103F600003681A6912F0020F11D0DA6812F0020F1A
:103F70000DD06FF002021A610123037703689B6979
:103F800013F0030F70D0FFF7E6FF002323772368B9
:103F90001A6912F0040F12D0DA6812F0040F0ED072
:103FA0006FF004021A610223237723689B6913F4DC
:103FB000407F5FD02046FFF7CEFF002323772368A2
:103FC0001A6912F0080F12D0DA6812F0080F0ED03A
:103FD0006FF008021A61042323772368DB6913F06A
:103FE000030F4ED02046FFF7B6FF00232377236848
:103FF0001A6912F0100F12D0DA6812F0100F0ED0FA
:104000006FF010021A61082323772368DB6913F429
:10401000407F3DD02046FFF79EFF00232377236893
:104020001A6912F0010F03D0DA6812F0010F36D1CD
:1040300023681A6912F0800F03D0DA6812F0800F3B
:1040400034D123681A6912F0400F03D0DA6812F0F5
:10405000400F32D123681A6912F0200F03D0DA68BA
:1040600012F0200F30D110BDFFF774FF2046FFF78C
:1040700073FF8AE72046FFF76DFF2046FFF76CFFCE
:104080009BE72046FFF766FF2046FFF765FFACE79A
:104090002046FFF75FFF2046FFF75EFFBDE76FF0AA
:1040A00001021A612046FCF703FFC1E76FF08002AE
:1040B0001A61204600F0C4FAC3E76FF040021A61AB
:1040C0002046FFF74AFFC5E76FF020021A6120463D
:1040D00000F0B5FAC7E700000368304A904212D0FA
:1040E000B0F1804F0FD0A2F57C4290420BD002F588
:1040F0008062904207D002F58062904203D002F5C0
:104100007842904203D123F070034A681343234A54
:1041100090422AD0B0F1804F27D0A2F57C42904245
:1041200023D002F5806290421FD002F58062904257
:104130001BD002F57842904217D002F5705290429F
:1041400013D002F5806290420FD002F58062904257
:104150000BD0A2F59832904207D002F580629042CF
:1041600003D002F58062904203D123F44073CA6801
:10417000134323F080034A69134303608B68C362CF
:104180000B688362054B984203D003F58063984225
:1041900001D10B69036301234361704700000140B3
:1041A00040B310B5044690F83D30F3B1022384F8D3
:1041B0003D30214651F8040BFFF78EFF012384F8B0
:1041C000463084F83E3084F83F3084F8403084F83C
:1041D000413084F8423084F8433084F8443084F825
:1041E000453084F83D30002010BD80F83C30FDF7AC
:1041F000C9FADBE70120704740B310B5044690F8D8
:104200003D30F3B1022384F83D30214651F8040BD0
:10421000FFF762FF012384F8463084F83E3084F8CB
:104220003F3084F8403084F8413084F8423084F8DC
:10423000433084F8443084F8453084F83D30002021
:1042400010BD80F83C30FDF7F3FADBE70120704742
:1042500030B4036A23F010030362036A446882697E
:1042600022F4E6420D6842EA052223F020038D681D
:1042700043EA0513114DA84203D005F58065A84215
:1042800006D123F08003CD6843EA051323F04003F1
:104290000A4DA84203D005F58065A84207D124F451
:1042A00040644D6944EA85048D6944EA85044460AC
:1042B00082614A688263036230BC7047000001403B
:1042C00038B590F83C30012B66D004460D460123EA
:1042D00080F83C300C2A5AD8DFE802F007595959C7
:1042E0001B5959593059595944000068FFF72AFDA4
:1042F0002268936943F0080393612268936923F06D
:10430000040393612268936929690B439361002038
:104310003EE00068FFF79CFF2268936943F4006366
:1043200093612268936923F480639361226893699F
:10433000296943EA01239361002029E00068FFF71F
:1043400035FD2268D36943F00803D3612268D3693D
:1043500023F00403D3612268D36929690B43D36135
:10436000002015E00068FFF759FD2268D36943F487
:104370000063D3612268D36923F48063D361226828
:10438000D369296943EA0123D361002000E00120B9
:10439000002384F83C3038BD0220FCE710B4846868
:1043A00024F47F4C42EA03220A4342EA0C02826070
:1043B0005DF8044B704790F83C30012B78D010B575
:1043C0000446012380F83C30022380F83D30026827
:1043D000936823F47F4323F0770393600B68602B8B
:1043E0004CD029D8402B54D00CD9502B22D1CA689C
:1043F00049680068FFF73AFD50212068FFF75DFD2E
:10440000002005E0202B0DD009D9302B0AD0012047
:10441000012384F83D30002384F83C3010BD0BB1FB
:10442000102B05D119462068FFF747FD0020EFE764
:104430000120EDE70120EBE7B3F5805F34D0B3F561
:10444000005F0CD1CB684A6889680068FFF7A6FF57
:104450002268936843F4804393600020D8E7702B70
:1044600024D1CB684A6889680068FFF797FF226803
:10447000936843F0770393600020C9E7CA684968EE
:104480000068FFF706FD60212068FFF716FD002099
:10449000BEE7CA6849680068FFF7E8FC4021206869
:1044A000FFF70BFD0020B3E70020B1E70120AFE7E5
:1044B0000220704701F01F01012303FA01FC036A87
:1044C00023EA0C030362036A02FA01F10B4303625D
:1044D0007047000038B504460D4600220068FFF71B
:1044E000E9FF23681D4A934218D002F58062934287
:1044F00014D02368196A41F21112114208D1196AC5
:1045000040F24442114203D11A6822F001021A60BB
:104510009DB9012384F83E30002038BD196A41F26C
:1045200011121142E5D1196A40F244421142E0D120
:104530005A6C22F400425A64DBE7042D05D0082DA2
:1045400007D0012384F84130E6E7012384F83F30A7
:10455000E2E7012384F84030DEE700BF00000140BD
:1045600090F83C30012B3DD010B4012380F83C3052
:10457000022380F83D3003685A689C6822F0700C72
:104580000A6842EA0C025A600368174A93421AD03A
:10459000B3F1804F17D0A2F57C42934213D002F5BD
:1045A000806293420FD002F5806293420BD002F5F5
:1045B0007842934207D002F57052934203D0A2F59D
:1045C0009432934204D124F080044A6814439C60DE
:1045D000012380F83D30002380F83C3018465DF818
:1045E000044B7047022070470000014090F83C30B7
:1045F000012B22D0012380F83C30CB6823F4407398
:104600008A68134323F480634A68134323F40063E6
:104610000A68134323F480530A69134323F40053B5
:104620004A69134323F48043CA69134302685364FD
:10463000002380F83C3018467047022070477047CE
:104640007047026802F10C0353E8003F23F0C003F7
:104650000C3242E800310029F3D1202380F83D30AC
:104660007047026802F10C0353E8003F23F4907393
:104670000C3242E800310029F3D1026802F1140340
:1046800053E8003F23F00103143242E800310029CF
:10469000F3D1036B012B05D0202380F83E3000239B
:1046A00003637047026802F10C0353E8003F23F0F4
:1046B00010030C3242E800310029F3D1ECE790F806
:1046C0003D30DBB2212B01D0022070478368B3F567
:1046D000805F17D0036A5A1C02621A7803685A6016
:1046E000C38C9BB2013B9BB2C3844BB90268D368B5
:1046F00023F08003D3600268D36843F04003D360A3
:10470000002070470369002BE4D1036A1B8802680C
:10471000C3F308035360036A02330362E0E7000057
:1047200038B504460268136923F44053C1680B434B
:10473000136183680269134342691343C2691A43D0
:104740000168CB6823F4164323F00C031343CB60BA
:104750000268536923F4407381690B435361036812
:10476000314A934206D002F58062934202D0FEF7AE
:104770004DFC01E0FEF75AFCE369B3F5004F29D088
:104780000021031849411B1841F10001C90041EA09
:104790005371DB00181863684FEA83024FEA937382
:1047A00041F10001FCF702FA204DA5FB003251094E
:1047B000642303FB11031B013233A5FB03235B09B5
:1047C00003F0F00202EB011203F00F03216813441F
:1047D0008B6038BD0023021843EB0301121841F12E
:1047E0000001C90041EA5271D200101841F10001E4
:1047F000626892185B41FCF7D9F90C4DA5FB0032B9
:104800005109642303FB1103DB003233A5FB0323AF
:104810005B095A0002F4F87202EB011203F007037D
:10482000216813448B60D4E7001001401F85EB51D1
:1048300058B310B5044690F83D300BB3242384F8E8
:104840003D302268D36823F40053D3602046FFF73D
:1048500067FF2268136923F4904313612268536948
:1048600023F02A0353612268D36843F40053D360D2
:1048700000202064202384F83D3084F83E3010BDB1
:1048800080F83C30FDF762FAD8E70120704790F8D5
:104890003D30DBB2202B19D1D1B1DAB190F83C30E8
:1048A000012B19D0012380F83C3001628284C2843C
:1048B00000230364212280F83D2080F83C30016809
:1048C000CA6842F08002CA601846704702207047EA
:1048D00001207047012070470220704710B5044640
:1048E00003685A6990F83D30DBB2212B0AD0236867
:1048F0005A6902F0400294F83E30DBB2222B19D004
:10490000002010BD02F08002002AF0D0226802F1DF
:10491000140353E8003F23F08003143242E80031CF
:104920000029F3D1606B08B1FEF7FDFD2046FFF7CB
:1049300088FEDCE7002AE3D0226802F1140353E882
:10494000003F23F04003143242E800310029F3D144
:10495000A06B08B1FEF7E7FD2046FFF782FECFE728
:1049600008B50168CA6822F04002CA60202280F8B7
:104970003D2005F0BBFE002008BD70477047704722
:1049800010B5846B23685A6994F83D30DBB2212B53
:1049900010D023685A6902F0400294F83E30DBB22E
:1049A000222B11D0236C43F0100323642046FFF721
:1049B000E6FF10BD02F08002002AEAD00023E38463
:1049C0002046FFF73EFEE4E7002AEBD00023E38514
:1049D0002046FFF746FEE5E708B5806B0023C38558
:1049E000C384FFF7CCFF08BD704790F83E30DBB2C0
:1049F000222B67D18368B3F5805F4DD0826AB3F50F
:104A0000805F04D0002B54D10369002B51D103687F
:104A10005B681370836A01338362C38D9BB2013B71
:104A20009BB2C385002B4FD100B583B00268D36819
:104A300023F02003D3600268D36823F48073D3602B
:104A40000268536923F001035361202380F83E304C
:104A5000036B012B33D100230363026802F10C03C3
:104A600053E8003F23F010030C3242E800310029E4
:104A7000F3D103681A6812F0100F06D000220192D9
:104A80001A6801925B680193019B818DFFF7ACFF6F
:104A9000002003B05DF804FB0269002AAED1826AEF
:104AA00003685B68C3F308031380836A023383627D
:104AB000B3E703685B6803F07F031370AAE7FFF7AF
:104AC0005CFFE5E7022070470020704730B583B0F7
:104AD000044602681368D068516913F00F0505D1C8
:104AE00013F0200F02D010F0200F19D12DB111F0CA
:104AF000010119D110F4907F16D1216B01297DD0CD
:104B000013F0800F03D010F0800F40F0158113F0E8
:104B1000400F03D010F0400F40F0128103B030BDC1
:104B20002046FFF762FFF9E713F0010F06D010F4FB
:104B3000807F03D0226C42F00102226413F0040F44
:104B400004D019B1226C42F00202226413F0020F69
:104B500004D019B1226C42F00402226413F0080F51
:104B600007D010F0200F00D119B1226C42F00802DA
:104B70002264226C002AD1D013F0200F02D010F052
:104B8000200F29D123685B6903F04003226C12F0E7
:104B9000080F00D163B32046FFF763FD23685B690C
:104BA00013F0400F20D0226802F1140353E8003FB5
:104BB00023F04003143242E800310029F3D1A36B03
:104BC00073B1614A1A65A06BFEF7F7FC0028A5D007
:104BD000A06B036D9847A1E72046FFF706FFD1E7DA
:104BE0002046FFF7CCFE99E72046FFF7C8FE95E781
:104BF0002046FFF7C4FE002323648FE713F0100F55
:104C00003FF47EAF10F0100F3FF47AAF0023019312
:104C10001368019353680193019B536913F0400F8C
:104C200050D0A26B13685B689BB2002B3FF476AF49
:104C3000A18D99427FF672AFE385D369B3F5807F8A
:104C400037D0226802F10C0353E8003F23F480734D
:104C50000C3242E800310029F3D1226802F114033A
:104C600053E8003F23F00103143242E800310029E9
:104C7000F3D1226802F1140353E8003F23F040030C
:104C8000143242E800310029F3D1202384F83E3069
:104C900000232363226802F10C0353E8003F23F052
:104CA00010030C3242E800310029F3D1A06BFEF76B
:104CB0003AFCA18DE38D9BB2C91A89B22046FFF759
:104CC00093FE2BE7A18DE38D9BB2C91A89B2E38DC8
:104CD0009BB2002B3FF422AF00293FF41FAF2268A4
:104CE00002F10C0353E8003F23F490730C3242E8C6
:104CF00000300028F3D1226802F1140353E8003F8A
:104D000023F00103143242E800300028F3D12023BD
:104D100084F83E3000232363226802F10C0353E839
:104D2000003F23F010030C3242E800300028F3D19A
:104D30002046FFF759FEF1E62046FFF7C0FCEDE6FE
:104D40002046FFF70DFEE9E6D949000808B5806B5B
:104D5000036B012B02D0FFF711FE08BD818D4908BE
:104D6000FFF742FEF9E708B50346806B1B681B6836
:104D700013F4807F2BD10023C385026802F10C035A
:104D800053E8003F23F480730C3242E800310029DD
:104D9000F3D1026802F1140353E8003F23F001034A
:104DA000143242E800310029F3D1026802F1140301
:104DB00053E8003F23F04003143242E80031002959
:104DC000F3D1202380F83E30036B012B05D0036B19
:104DD000012B0FD0FFF7D1FD08BD026802F10C03D3
:104DE00053E8003F23F010030C3242E80031002961
:104DF000F3D1ECE7818DFFF7F7FDEDE730B583B038
:104E0000044613468162828500250564222280F8CB
:104E10003E20826B2048D063A26B20481064A26BB6
:104E20001F48D064A26B156520680A46011DA06B5F
:104E3000FEF744FB019523681A6801925B680193B1
:104E4000019B84F83C5023695BB1226802F10C039A
:104E500053E8003F43F480730C3242E800310029EC
:104E6000F3D1226802F1140353E8003F43F0010339
:104E7000143242E800310029F3D1226802F1140310
:104E800053E8003F43F04003143242E80031002968
:104E9000F3D1002003B030BD674D00084D4D000830
:104EA0008149000808B590F83E30DBB2202B0DD1C7
:104EB00071B17AB190F83C30012B0DD0012380F80C
:104EC0003C3000230363FFF799FF00E0022008BD98
:104ED0000120FCE70120FAE70220F8E7034AD2F8B4
:104EE000883043F47003C2F88830704700ED00E06A
:104EF00000F1080343604FF0FF328260C36003613A
:104F000000230360704700230361704743684B60D0
:104F10009A688A6051609960086103680133036090
:104F2000704730B40D68B5F1FF3F11D000F10803B0
:104F30001C465B681A68AA42FAD963684B6099609C
:104F40008C606160086103680133036030BC7047A6
:104F50000469F2E70369416882688A6041685160C8
:104F60005A68824206D0002202611A68013A1A6029
:104F70001868704782685A60F5E710B5044601F07A
:104F800009FDA26BE36B9A4204D0002401F024FDDA
:104F9000204610BD0124F9E710B5044601F0FAFCE3
:104FA000A36B23B9012401F017FD204610BD002496
:104FB000F9E770B504461546866B026C5AB903686A
:104FC0001BB100200136A66370BD806801F026F891
:104FD0000023A360F6E76DB9406806F0F5F8226C8F
:104FE000636813446360A268934219D323686360C3
:104FF0002846E7E7C06806F0E7F8226C5142E3680C
:105000009B1AE3602268934202D2A3680B44E360D8
:10501000022D01D00020D5E726B1013E0020D1E7C6
:105020002846CFE70020CDE70346026C6AB110B5F1
:105030000846D9681144D9609C68A14201D3196817
:10504000D960D96806F0C0F810BD704738B505467C
:1050500001F0A0FC95F8454064B201E0013C64B267
:10506000002C0ADD6B6A43B105F1240000F02CFF2F
:105070000028F3D000F0BCFFF0E7FF2385F84530AF
:1050800001F0AAFC01F086FC95F8444064B201E00E
:10509000013C64B2002C0ADD2B6943B105F110001C
:1050A00000F012FF0028F3D000F0A2FFF0E7FF238A
:1050B00085F8443001F090FC38BD38B5E0B10D46BC
:1050C000044601F067FC2368E26B216C01FB0230AF
:1050D000A0600020A0636360013A02FB0133E3603B
:1050E000FF2384F8443084F84530FDB9236963B95F
:1050F00001F072FC012038BD4FF0500383F311889A
:10510000BFF36F8FBFF34F8FFEE704F1100000F085
:10511000DBFE0028ECD04FF0E0234FF08052C3F8C4
:10512000042DBFF34F8FBFF36F8FE1E704F1100041
:10513000FFF7DEFE04F12400FFF7DAFED8E738B50A
:105140001D46049C0B4649B92460E0632364012199
:105150002046FFF7B2FF84F84C5038BD2260F4E7D8
:1051600040B94FF0500383F31188BFF36F8FBFF343
:105170004F8FFEE710B584B01C46844653B192B100
:1051800089B94FF0500383F31188BFF36F8FBFF3DA
:105190004F8FFEE74FF0500383F31188BFF36F8FFB
:1051A000BFF34F8FFEE76AB150230393039B502B4D
:1051B00013D04FF0500383F31188BFF36F8FBFF309
:1051C0004F8FFEE70029EFD04FF0500383F3118893
:1051D000BFF36F8FBFF34F8FFEE7039B012384F86C
:1051E000463000949DF818306046FFF7A8FF20462F
:1051F00004B010BDF0B585B0019288B10F461D46D0
:105200000446B1B1022D20D1E36B012B1DD04FF02C
:10521000500383F31188BFF36F8FBFF34F8FFEE707
:105220004FF0500383F31188BFF36F8FBFF34F8F9D
:10523000FEE7036C002BE5D04FF0500383F3118899
:10524000BFF36F8FBFF34F8FFEE700F0D7FE064628
:1052500058B9019B002B48D04FF0500383F31188BD
:10526000BFF36F8FBFF34F8FFEE700263DE02A4666
:1052700039462046FFF79DFE636A7BB948B14FF07F
:10528000E0234FF08052C3F8042DBFF34F8FBFF3DC
:105290006F8F01F0A1FB012005B0F0BD04F12400E7
:1052A00000F012FE0028F4D04FF0E0234FF08052BF
:1052B000C3F8042DBFF34F8FBFF36F8FE9E701F001
:1052C0008BFB0020E8E702A800F044FE012619E06D
:1052D000002384F8443021E0002384F8453023E0A3
:1052E0002046FFF7B3FE00F07DFC01F053FBA26BFC
:1052F000E36B9A42BBD3022DB9D0019B002BDED0C9
:10530000002EE0D001F068FB00F0D2FB01F042FB80
:1053100094F8442052B2B2F1FF3FD9D094F845201E
:1053200052B2B2F1FF3FD7D001F056FB01A902A85B
:1053300000F01CFED8B92046FFF71FFE0028CFD092
:10534000019904F1100000F08BFD2046FFF77EFE6E
:1053500000F048FC0028C8D14FF0E0234FF0805205
:10536000C3F8042DBFF34F8FBFF36F8FBDE7204607
:10537000FFF76CFE00F036FC00208DE72DE9F843C6
:1053800090B10F4616461C460546B1B1022C20D1FD
:10539000EB6B012B1DD04FF0500383F31188BFF34B
:1053A0006F8FBFF34F8FFEE74FF0500383F31188E9
:1053B000BFF36F8FBFF34F8FFEE7036C002BE5D079
:1053C0004FF0500383F31188BFF36F8FBFF34F8FFC
:1053D000FEE701F005FCEFF311894FF0500383F372
:1053E0001188BFF36F8FBFF34F8FAA6BEB6B9A429D
:1053F00006D3022C04D0002089F31188BDE8F8837D
:1054000095F845804FFA88F8AB6B22463946284616
:10541000FFF7CFFDB8F1FF3F06D008F101035BB203
:1054200085F845300120E7E76B6A0BB90120E3E717
:1054300005F1240000F048FD18B126B101203060CC
:10544000DAE70120D8E70120D6E7F0B585B0019270
:1054500090B10F460446C1B100F0D0FD064600BB36
:10546000019B002B5ED04FF0500383F31188BFF3F4
:105470006F8FBFF34F8FFEE74FF0500383F3118818
:10548000BFF36F8FBFF34F8FFEE7036C002BE3D0AA
:105490004FF0500383F31188BFF36F8FBFF34F8F2B
:1054A000FEE700263EE039462046FFF7BDFD013D00
:1054B000A563236923B901F08FFA012005B0F0BD7F
:1054C00004F1100000F000FD0028F4D04FF0E023BC
:1054D0004FF08052C3F8042DBFF34F8FBFF36F8F8F
:1054E000E9E701F079FA0020E8E702A800F032FDD0
:1054F000012621E0002384F8443029E0002384F8C9
:1055000045302BE02046FFF7A1FD00F06BFB09E0E2
:105510002046FFF79BFD00F065FB2046FFF73CFDB2
:1055200000283FD101F036FAA56B002DBBD1019BBD
:10553000002BD6D0002ED8D001F04EFA00F0B8FAE9
:1055400001F028FA94F844305BB2B3F1FF3FD1D0B8
:1055500094F845305BB2B3F1FF3FCFD001F03CFA95
:1055600001A902A800F002FD0028D1D12046FFF7D2
:1055700013FD0028C6D0019904F1240000F070FC4E
:105580002046FFF763FD00F02DFB0028CAD14FF045
:10559000E0234FF08052C3F8042DBFF34F8FBFF3C9
:1055A0006F8FBFE7002089E70023072B0CD8074A3D
:1055B00052F833200AB10133F7E7044A42F83310B6
:1055C00002EBC30358607047704700BFD805002046
:1055D00070B504460D46164601F0DCF994F84430E7
:1055E0005BB2B3F1FF3F0DD094F845305BB2B3F13D
:1055F000FF3F0BD001F0F0F9A36B5BB12046FFF742
:1056000025FD70BD002384F84430EDE7002384F8C5
:105610004530EFE73246294604F1240000F038FC1B
:10562000ECE70000084B1B681B6823B9074B4FF0E1
:10563000FF321A607047044B1B68DB68DB685A68EE
:10564000024B1A60704700BF1C060020C40A0020ED
:105650002DE9F04780460D4617469946089EDDF82D
:1056600024A00A9C9200A521206B05F0BBFD236BB2
:1056700007F18042013A03EB820727F00707B5B331
:105680004FF0000CBCF10F0F0BD815F80C2004EBF9
:105690000C0383F8342015F80C3013B10CF1010C15
:1056A000F0E7002384F84330372E00D93726E6622E
:1056B000E66400252565201DFFF725FC04F1180090
:1056C000FFF721FC2461C6F13806A66164626565B6
:1056D00084F858504A464146384601F02DF920607A
:1056E000BAF1000F01D0CAF80040BDE8F0870023EE
:1056F00084F83430D8E7000038B5002407E004EB24
:10570000840293000E481844FFF7F2FB0134372C53
:10571000F5D90C4D2846FFF7EBFB0B4C2046FFF765
:10572000E7FB0A48FFF7E4FB0948FFF7E1FB0948FC
:10573000FFF7DEFB084B1D60084B1C6038BD00BF47
:1057400024060020980A0020AC0A0020D00A00207D
:10575000FC0A0020E80A00201C0600202006002089
:1057600010B5044601F016F9224A1368013313609C
:10577000214B1B685BB1214B1B686BB91E4B1B682F
:10578000DA6AE36A9A4207D81B4B1C6004E01A4BA2
:105790001C601368012B29D0194A13680133136068
:1057A0006364E06A174B1B68984201D9154B186077
:1057B00000EB8000211D144B03EB8000FFF7A6FBDC
:1057C00001F00AF90D4B1B687BB10B4B1B68DA6AC1
:1057D000E36A9A4209D24FF0E0234FF08052C3F8B7
:1057E000042DBFF34F8FBFF36F8F10BDFFF784FF02
:1057F000D2E700BF840A002018060020E40A002037
:10580000900A0020940A00202406002010B50446C7
:1058100090F8593063B1012B11D0022B0ED04FF00C
:10582000500383F31188BFF36F8FBFF34F8FFEE7F1
:10583000006B01F005F8204601F002F810BD00F001
:10584000FFFFFBE70F4B1B68D3B110B501F0A2F8C7
:105850000D4BDB68DC68201DFFF77CFB0B4A1368EF
:10586000013B1360074A1368013B136001F0B4F871
:105870002046FFF7CBFF034B1B68002BE6D110BD82
:10588000704700BF880A0020FC0A0020840A00201C
:1058900008B5FFF7D7FF074B1B68012BF9D94FF06D
:1058A000E0234FF08052C3F8042DBFF34F8FBFF3B6
:1058B0006F8FEEE72406002070B504460D46174BA7
:1058C0001E68174B18680430FFF744FBB4F1FF3F24
:1058D0000DD03444124B1B685C60A64210D9114BAA
:1058E00018680F4B19680431FFF71BFB70BD002DC2
:1058F000EFD00B4B196804310B48FFF707FBF5E7B6
:105900000A4B1868064B19680431FFF70AFB084B6D
:105910001B68A342EAD9064B1C60E7E7100B002086
:105920001806002020060020E80A00201C0600209F
:10593000C40A002030B587B00B9C7CB10C9DB5B17A
:105940005C250495049D5C2D1AD04FF0500383F321
:105950001188BFF36F8FBFF34F8FFEE74FF05003F7
:1059600083F31188BFF36F8FBFF34F8FFEE74FF0C4
:10597000500383F31188BFF36F8FBFF34F8FFEE7A0
:10598000049D0C9D2C63022485F859400024039447
:10599000029505AC01940A9C0094FFF759FE0C98FF
:1059A000FFF7DEFE059807B030BD2DE9F04385B066
:1059B0000746884614461E46900000F0C3FE00B31A
:1059C00081465C2000F0BEFE0546B0B1C0F83090C4
:1059D000E5B1002385F85930039302950D9B01939F
:1059E0000C9B00933346224641463846FFF730FE73
:1059F0002846FFF7B5FE012005E0484600F020FFED
:105A0000E6E74FF0FF3005B0BDE8F0834FF0FF3020
:105A1000F9E7000010B588B000240594069407AAA1
:105A200006A905A800F012FE059B0293069B0193B0
:105A300000942346079A18491848FFF77BFF184B34
:105A4000186040B100F09EFB012806D0B0F1FF3F86
:105A500018D008B010BD0020F6E74FF0500383F3D4
:105A60001188BFF36F8FBFF34F8F0E4B4FF0FF3294
:105A70001A600D4B01221A600C4B00221A6001F0D3
:105A800023F8E6E74FF0500383F31188BFF36F8FDD
:105A9000BFF34F8FFEE700BFECDE0008915800080F
:105AA000C00A0020C40A0020E40A0020100B0020D5
:105AB000024A136801331360704700BF8C0A00204C
:105AC000014B1868704700BF100B0020F8B53A4B27
:105AD0001B68002B69D1394B1D6801351D60C5B9A4
